{
  "contractName": "CustomerInformation",
  "abi": [
    {
      "constant": true,
      "inputs": [],
      "name": "customerCount",
      "outputs": [
        {
          "name": "",
          "type": "uint256"
        }
      ],
      "payable": false,
      "stateMutability": "view",
      "type": "function",
      "signature": "0x9757e8a3"
    },
    {
      "constant": true,
      "inputs": [
        {
          "name": "",
          "type": "uint256"
        }
      ],
      "name": "customers",
      "outputs": [
        {
          "name": "id",
          "type": "uint256"
        },
        {
          "name": "fullName",
          "type": "bool"
        },
        {
          "name": "ssn",
          "type": "bool"
        }
      ],
      "payable": false,
      "stateMutability": "view",
      "type": "function",
      "signature": "0xc0abda2a"
    },
    {
      "inputs": [],
      "payable": false,
      "stateMutability": "nonpayable",
      "type": "constructor",
      "signature": "constructor"
    },
    {
      "constant": false,
      "inputs": [
        {
          "name": "_fullName",
          "type": "bool"
        },
        {
          "name": "_ssn",
          "type": "bool"
        }
      ],
      "name": "createCustomer",
      "outputs": [],
      "payable": false,
      "stateMutability": "nonpayable",
      "type": "function",
      "signature": "0xd7b83a25"
    }
  ],
  "bytecode": "0x60806040526000805534801561001457600080fd5b5061002960008064010000000061002e810204565b610093565b60008054600190810180835560408051606081018252828152951515602080880191825295151587830190815292855294839052909220935184559151929091018054915115156101000261ff001993151560ff199093169290921792909216179055565b6101be806100a26000396000f3fe6080604052600436106100565763ffffffff7c01000000000000000000000000000000000000000000000000000000006000350416639757e8a3811461005b578063c0abda2a14610082578063d7b83a25146100cc575b600080fd5b34801561006757600080fd5b50610070610102565b60408051918252519081900360200190f35b34801561008e57600080fd5b506100ac600480360360208110156100a557600080fd5b5035610108565b604080519384529115156020840152151582820152519081900360600190f35b3480156100d857600080fd5b50610100600480360360408110156100ef57600080fd5b50803515159060200135151561012d565b005b60005481565b6001602081905260009182526040909120805491015460ff8082169161010090041683565b60008054600190810180835560408051606081018252828152951515602080880191825295151587830190815292855294839052909220935184559151929091018054915115156101000261ff001993151560ff19909316929092179290921617905556fea165627a7a72305820b0387a6721be3cb07e3dcbca67f0751b5a6149740a2828cbee56b165970f70230029",
  "source": "pragma solidity ^0.5.0;\r\n\r\n\r\ncontract CustomerInformation {\r\n    // Code goes here...\r\n\r\n    uint public customerCount = 0;\r\n\r\n     constructor() public {\r\n        createCustomer(false, false);\r\n      }\r\n\r\nstruct Customer {\r\n    uint id;\r\n    bool fullName;\r\n    bool ssn;\r\n  }\r\n\r\n  mapping(uint => Customer) public customers;\r\n\r\n  function createCustomer(bool _fullName, bool _ssn) public {\r\n    customerCount ++;\r\n    customers[customerCount] = Customer(customerCount, _fullName, _ssn);\r\n  }\r\n}",
  "sourcePath": "C:/Users/nagen/Documents/security-app/contracts/CustomerInformation.sol",
  "compiler": {
    "name": "solc",
    "version": "0.5.0+commit.1d4f565a.Emscripten.clang"
  },
  "schemaVersion": "3.0.1",
  "updatedAt": "2019-11-02T20:51:04.391Z",
  "devdoc": {
    "methods": {}
  },
  "userdoc": {
    "methods": {}
  }
}